:020000040800F2
:1000000000070020810E00082102000823020008DA
:10001000270200082B0200082F0200080000000041
:100020000000000000000000000000003302000893
:1000300035020008000000003702000839020008FD
:100040009B0E00089B0E00089B0E00089B0E0008EC
:100050009B0E00089B0E00089B0E00089B0E0008DC
:100060009B0E00089B0E00089B0E00089B0E0008CC
:100070009B0E00089B0E00089B0E00089B0E0008BC
:100080009B0E00089B0E00089B0E00089B0E0008AC
:100090009B0E00089B0E00089B0E00089B0E00089C
:1000A0009B0E00089B0E00089B0E00089B0E00088C
:1000B0009B0E00089B0E00089B0E00089B0E00087C
:1000C0009B0E00089B0E00089B0E00089B0E00086C
:1000D0009B0E00089B0E00089B0E0008F70D000801
:1000E0009B0E00089B0E00089B0E000800F002F813
:1000F00000F03AF80AA090E8000C82448344AAF188
:100100000107DA4501D100F02FF8AFF2090EBAE885
:100110000F0013F0010F18BFFB1A43F0010318473B
:10012000181B0000381B0000103A24BF78C878C1A3
:10013000FAD8520724BF30C830C144BF04680C60ED
:10014000704700000023002400250026103A28BF35
:1001500078C1FBD8520728BF30C148BF0B60704739
:100160001FB51FBD10B510BD01F024FD1146FFF7EE
:10017000F7FF00F009F801F055FD03B4FFF7F2FFB7
:1001800003BC00F0DBFD000000F0C6F8482000F0E2
:100190007BFD00F0CDFD4FF4165000F0DDFD00F0CA
:1001A0003BF900F036FC00F0A6FC00F069FC4120B1
:1001B00000F073FC21E01149522000F08BFAC8B91D
:1001C0000F4800F0B1FAA8B90D4800F01AFB88B941
:1001D0000CA001F067FC0A4B0E4A3F21602000F0A2
:1001E00054FB38B90CA001F05DFC10210348801EBF
:1001F00001F064FC322000F061FDDCE742000020E9
:1002000006000020492067657420612063617264E4
:1002100021200000000000206F6B0D0A000000008C
:10022000704700BFFEE700BFFEE700BFFEE700BF6C
:10023000FEE7704770477047704700000CB500201C
:10024000019000906B48006840F480306949086074
:1002500000BF6848006800F4003000900198401C1E
:100260000190009818B90198B0F5A06FF1D16148DC
:10027000006810F4003F02D00120009001E000204F
:1002800000900098012842D15B48006840F01000BF
:10029000594908600846006820F0030008600846D5
:1002A000006840F0020008605248406851494860C8
:1002B0000846406848600846406840F480604860EE
:1002C0000846406820F47C1048600846406840F4C6
:1002D000E81048600846006840F08070086000BF81
:1002E0004448006810F0007FFAD04248406820F08F
:1002F0000300404948600846406840F002004860FA
:1003000000BF3C48406800F00C000828F9D10CBD43
:1003100010B5FFF793FF10BD10B53648006840F0E8
:1003200001003449086008464068344908403149B2
:10033000486008460068324908402E49086008466F
:10034000006820F4802008600846406820F4FE0021
:1003500048604FF41F008860FFF7DAFF4FF000603D
:100360002849086010BD10B5002100200022214B53
:100370005B6803F00C0121B1042906D0082928D1BB
:1003800007E0214B214C236027E01F4B1F4C2360CB
:1003900023E0184B5B6803F47010164B5B6803F4A2
:1003A0008032022303EB904022B9194B4343174C90
:1003B00023600DE00F4B5B6813F4003F04D0144B37
:1003C0004343124C236003E00F4B43430F4C236025
:1003D00003E00D4B0D4C236000BF00BF054B5B6875
:1003E000C3F303130B4CE15C084B1B68CB40074C79
:1003F000236010BD00100240002002400000FFF802
:10040000FFFFF6FE08ED00E000127A000C0000206D
:1004100000093D001000002008B50121102001F066
:10042000D3F80F20ADF8000010208DF80300032052
:100430008DF802006946FA4800F010FE1020ADF871
:10044000000048208DF8030003208DF80200694663
:10045000F34800F003FE08BD30B502460024F14D1C
:100460002C60F14DC5F88C414FF07E0404EA420344
:100470004FF0080013E0C3F3C014EC4D2C604FF0B4
:100480000104E94DC5F888414FEA43644FEA14631B
:100490004FF00004E34D2C60A0F10104E0B200280D
:1004A000E9DC082013E0C1F3C014E04D2C604FF0EC
:1004B0000104DD4DC5F888414FEA41644FEA1461FB
:1004C0004FF00004D74D2C60A0F10104E0B20028E9
:1004D000E9DC0124D64D2C60D34DC5F8884130BDF0
:1004E00030B5024600200024CE4D2C60CE4DC5F81C
:1004F0008C414FF07E0404EA420444F080034FF044
:10050000080113E0C3F3C014C84D2C604FF0010480
:10051000C54DC5F888414FEA43644FEA14634FF074
:100520000004C04D2C60A1F10104E1B20029E9DC16
:10053000082112E00124BB4D2C604FEA40644FEAD1
:100540001460B94CD4F8104144EA0004E0B24FF012
:1005500000042C60A1F10104E1B20029EADC0124CD
:10056000B34D2C60B04DC5F8884130BD70B505461F
:100570000C4600262846FFF7B3FF064646EA04016C
:100580002846FFF769FF70BD70B505460C4600268A
:100590002846FFF7A5FF064626EA04012846FFF78E
:1005A0005BFF70BD2DE9FE4F0646884691469A4690
:1005B000DDF830B0022002900020019000900C2E57
:1005C00006D00E2E09D1122001901020009005E0D7
:1005D000772001903020009000E000BF00BF01981C
:1005E00040F080010220FFF737FF80210420FFF751
:1005F000CBFF00210120FFF72FFF80210A20FFF70A
:10060000B5FF002505E018F805100920FFF724FFC5
:100610006D1C4D45F7D331460120FFF71DFF0C2E11
:1006200003D180210D20FFF7A1FF4FF4FA6500BF31
:100630000420FFF755FF04466D1E2DB114F0010F85
:1006400002D100980442F3D080210D20FFF79CFFD7
:1006500095B30620FFF744FF10F01B0F2DD10020AB
:1006600002900198204010F0010F01D0012002906B
:100670000C2E24D10A20FFF733FF04460C20FFF78D
:100680002FFF00F007072FB1601E07EBC000CBF86B
:10069000000002E0E000CBF8000004B90124122CB5
:1006A00000DD1224002505E00920FFF719FF0AF8F4
:1006B00005006D1CA542F7D301E0022002908021C5
:1006C0000C20FFF753FF00210120FFF7C5FE029821
:1006D000BDE8FE8F70B587B005460C460821084678
:1006E000FFF752FF07210D20FFF7B6FE032114206C
:1006F000FFF73CFF8DF8045006A801AB012201A9C9
:1007000000900C20FFF74EFF06464EB906981028C1
:1007100006D19DF8040020709DF80500607000E08F
:100720000226304607B070BDF0B587B005460027F9
:1007300008210846FFF728FF00210D20FFF78CFE57
:1007400080210E20FFF720FF93208DF80400202049
:100750008DF8050006A801AB022201A900900C202B
:10076000FFF720FF064686B9002407E001A8005DD8
:10077000285501A8005D4740601CC4B2042CF5DB7D
:1007800001A8005DB84200D0022680210E20FFF7AC
:10079000EDFE304607B0F0BD2DE9F0410746884632
:1007A000154604210520FFF7EFFE00210120FFF789
:1007B00053FE80210A20FFF7D9FE002405E0395DB1
:1007C0000920FFF749FE601CC4B24445F7DB032152
:1007D0000120FFF741FEFF2400BF0520FFF780FE48
:1007E0000646601EC4B214B116F0040FF5D02220E4
:1007F000FFF776FE28702120FFF772FE6870BDE8D3
:10080000F08170B587B0054693208DF80400702004
:100810008DF8050000208DF80A00002416E0000085
:10082000001001408801224200002242840122423D
:100830008C012242295D01AAA01C11549DF80A00D6
:10084000295D48408DF80A00601CC4B2042CF1DB1D
:100850000DF10B02072101A8FFF79EFF08210846B2
:10086000FFF792FE06A801AB092201A900900C2017
:10087000FFF798FE064626B90698182801D10026EB
:1008800000E00226304607B070BD2DE9F04387B086
:1008900006460F46904699468DF804608DF805701F
:1008A000002406E018F8041001AAA01C1154601CD2
:1008B000C4B2062CF6DB002407E019F8041001AAE4
:1008C00004F108001154601CC4B2062CF5DB06A824
:1008D00001AB0C2201A900900E20FFF763FE054634
:1008E0002DB90820FFF7FCFD10F0080F00D10225FC
:1008F000284607B0BDE8F083F0B587B005460E4640
:1009000030208DF804008DF805500DF1060202210B
:1009100001A8FFF741FF06A801AB042201A900903E
:100920000C20FFF73FFE074667B90698902809D1CB
:10093000002404E001A8005D3055601CC4B2102CF6
:10094000F8DB00E00227384607B0F0BDF0B587B00D
:1009500006460F46A0208DF804008DF805600DF1C5
:100960000602022101A8FFF717FF06A801AB042227
:1009700001A900900C20FFF715FE054645B9069821
:10098000042805D19DF8040000F00F000A2800D0CB
:1009900002250DBB002404E0385D01A90855601C48
:1009A000C4B2102CF8DB05AA102101A8FFF7F4FE51
:1009B00006A801AB122201A900900C20FFF7F2FD5E
:1009C000054645B90698042805D19DF8040000F0B5
:1009D0000F000A2800D00225284607B0F0BD10B548
:1009E00087B050208DF8040000208DF805000DF12F
:1009F0000602022101A8FFF7CFFE06A801AB0422E0
:100A000001A900900C20FFF7CDFD0446204607B059
:100A100010BD10B501209A4908604FF0320000F077
:100A200068F900209749C1F88001322000F061F98F
:100A30000120934908604FF0320000F05AF90F216D
:100A40000120FFF709FD322000F053F93D2111206C
:100A5000FFF702FD1E212D20FFF7FEFC00212C20B8
:100A6000FFF7FAFC8D212A20FFF7F6FC3E212B2010
:100A7000FFF7F2FC40211520FFF7EEFC002010BD2F
:100A800010B51420FFF72CFD044614F0030F03D11A
:100A900003211420FFF76AFD10BD10B50446412C58
:100AA00025D108210846FFF76FFD3D211120FFF7F2
:100AB000D3FC86211720FFF7CFFC7F212620FFF7EC
:100AC000CBFC1E212D20FFF7C7FC00212C20FFF7B7
:100AD000C3FC8D212A20FFF7BFFC3E212B20FFF70E
:100AE000BBFC0A2000F0EAF8FFF7CAFF01E0022091
:100AF00010BD0020FCE700B503211420FFF744FDE2
:100B000000BDF0B587B006460D4617468DF8046067
:100B10008DF805500DF10602022101A8FFF73CFEF9
:100B200006A801AB042201A900900C20FFF73AFDB2
:100B3000044644B90698042805D19DF8040000F045
:100B40000F000A2800D00224A4B93868019002AA34
:100B5000042101A8FFF720FE0020069006A801ABA3
:100B6000062201A900900C20FFF71CFD0446022C70
:100B700000D00024F4B9B0208DF804008DF80550A1
:100B80000DF10602022101A8FFF706FE06A801AB3F
:100B9000042201A900900C20FFF704FD044644B98B
:100BA0000698042805D19DF8040000F00F000A28DB
:100BB00000D00224204607B0F0BD70B587B00546CE
:100BC0000E46C2208DF804008DF805500DF1060286
:100BD000022101A8FFF7E0FD06A801AB042201A94C
:100BE00000900C20FFF7DEFC044644B90698042868
:100BF00005D19DF8040000F00F000A2800D002245F
:100C0000CCB900208DF804008DF805008DF80600A1
:100C10008DF8070002AA042101A8FFF7BDFD06A870
:100C200001AB062201A900900C20FFF7BBFC044693
:100C3000022C00D0002414B1022007B070BDB020F7
:100C40008DF804008DF805600DF10602022101A85F
:100C5000FFF7A2FD06A801AB042201A900900C2019
:100C6000FFF7A0FC044644B90698042805D19DF876
:100C7000040000F00F000A2800D002242046DCE720
:100C8000800122420000224210B504466FF00400A9
:100C900000F066F9E11704EB5171C1F3C701224A74
:100CA00011701046007800EB4001C1EBC0104FF608
:100CB000FF7101EAC0001D49088010BD01461B4AB2
:100CC00012884A434FF0E0235A6100229A610122C0
:100CD0001A6100BF4FF0E022106910F0010F02D03E
:100CE00010F4803FF6D000224FF0E0231A619A61A1
:100CF000704701460C4A12784A434FF0E0235A618C
:100D000000229A6101221A6100BF4FF0E0221069AF
:100D100010F0010F02D010F4803FF6D000224FF007
:100D2000E0231A619A617047200000202200002011
:100D300010B54FF4A06000F0C3F810BD014600BF2D
:100D4000704700BF4A4A128812F0400FFAD0C2B270
:100D5000474B1B1D1A80704710B586B00446012111
:100D6000092000F031FC0121880400F03AFC4FF426
:100D70008060ADF8140003208DF8160018208DF85F
:100D8000170005A93B4800F069F94FF40060ADF881
:100D9000140004208DF8170005A9364800F05EF90C
:100DA00027208DF8000003208DF801008DF8020047
:100DB00001208DF80300684600F087F801940020B8
:100DC000ADF80800ADF80A00ADF80C00ADF8100061
:100DD0000C20ADF80E0001A9254800F0A0FC01226E
:100DE00040F22551224800F032FD0121204800F058
:100DF00022FD06B010BD10B540F225511C4800F090
:100E00000BFE10B31A4800F087FDC4B21A480078F0
:100E100010F0800F2BD11848007810F0400F0CD044
:100E20000A2C03D000201449087020E012480078F2
:100E300040F080001049087019E00D2C06D10E48D2
:100E4000007840F040000C49087010E00A48007833
:100E500000F03F0009490C5407480078401C06493F
:100E60000870084600783F2801DD0020087010BD9A
:100E700000480040000C0140240000205E000020DB
:100E80000948804709480047FEE7FEE7FEE7FEE71E
:100E9000FEE7FEE7FEE7FEE7FEE7FEE7044805495A
:100EA000054A064B7047000019030008ED000008D2
:100EB00000010020000700200003002000030020A4
:100EC00031490143314A1160704770B50021002358
:100ED0000F22C4780CB32D4C246804F4E064C4F5EC
:100EE000E064210AC1F10403CA40447804FA03F122
:100EF0008478144021430901254C0678A1550478D3
:100F000004F01F050124AC4005786D114FF0E02678
:100F100006EB8505C5F8004109E0047804F01F05DB
:100F20000124AC401B4D0678761145F8264070BD73
:100F3000194A0A400243154B1B1F1A60704739B10A
:100F4000124A121D12680243104B1B1D1A6006E064
:100F50000E4A121D126882430C4B1B1D1A6070470B
:100F6000042808D14FF0E021096941F004014FF055
:100F7000E022116107E04FF0E021096921F004014E
:100F80004FF0E022116170470000FA050CED00E01F
:100F900000E400E080E100E080FFFF1F10B50446A0
:100FA000CA48844208D10121042000F027FB002117
:100FB000042000F023FB46E0C548844208D101210B
:100FC000082000F01BFB0021082000F017FB3AE08E
:100FD000C048844208D10121102000F00FFB0021FD
:100FE000102000F00BFB2EE0BB48844208D1012109
:100FF000202000F003FB0021202000F0FFFA22E077
:10100000B648844208D10121402000F0F7FA0021BF
:10101000402000F0F3FA16E0B148844208D10121E3
:10102000802000F0EBFA0021802000F0E7FA0AE0CF
:10103000AC48844207D10121801500F0DFFA00217D
:10104000A01500F0DBFA10BD10B50121084600F034
:10105000D5FA0021012000F0D1FA10BD2DE9F041B0
:10106000024600250026002000230024002791F8D6
:1010700003C00CF00F0591F803C01CF0100F03D053
:1010800091F802C04CEA050591F800C0BCF1000FD0
:1010900031D0146800202BE04FF0010C0CFA00F363
:1010A000B1F800C00CEA03069E4220D183004FF045
:1010B0000F0C0CFA03F7BC4305FA03FC4CEA0404DA
:1010C00091F803C0BCF1280F06D14FF0010C0CFAC7
:1010D00000FCC2F814C00AE091F803C0BCF1480F4C
:1010E00005D14FF0010C0CFA00FCC2F810C0401CF6
:1010F0000828D1D31460B1F800C0BCF1FF0F34DD73
:10110000546800202EE000F1080C4FF0010808FAA6
:101110000CF3B1F800C00CEA03069E4221D1830013
:101120004FF00F0C0CFA03F7BC4305FA03FC4CEA32
:10113000040491F803C0BCF1280F05D100F1080C9C
:1011400008FA0CF8C2F8148091F803C0BCF1480FFB
:1011500007D100F1080C4FF0010808FA0CF8C2F8AA
:101160001080401C0828CED35460BDE8F0814FF6B3
:10117000FF710180022181700421C1707047024615
:10118000002093680B4201D0012000E0002070474E
:101190000146886880B2704702460020D3680B423F
:1011A00001D0012000E0002070470146C86880B2ED
:1011B000704701617047416170470AB1016100E009
:1011C00041617047C16070474FF480320A438261C9
:1011D0008161826182698269704702460020424BC8
:1011E00018684FF68073184040EA021008433E4BDF
:1011F000186070473D49C8617047F0B50A46002342
:1012000000240021002500F00046B6F1004F02D175
:10121000354EF16901E0344E7168C0F3034583B285
:1012200000F44016B6F5401F08D121F070612E4E33
:10123000766826F070662C4F7E6012E000F480160F
:10124000B6F5801F06D1032606FA05F4A14341F046
:10125000706106E0460D360103FA06F6B14341F02F
:10126000706122B1460D360103FA06F6314300F0F3
:101270000046B6F1004F02D11B4EF16101E01A4E5B
:101280007160F0BD30B500228B071C0F0F2303FAED
:1012900004F2154B08338C1053F824309343124C4E
:1012A00008348D1044F8253023468C1053F8243030
:1012B0008C07240F00FA04F423430B4C08348D10E0
:1012C00044F8253030BD0A490860704700080140E5
:1012D000000C0140001001400014014000180140C2
:1012E000001C01400020014000000140000020429D
:1012F000DC002042DD48006840F00100DB49086066
:1013000008464068DA490840D849486008460068FD
:10131000D8490840D54908600846006820F4802074
:1013200008600846406820F4FE0048604FF41F0043
:1013300088607047CD49096821F48031CB4A11603B
:101340001146096821F480211160B0F5803F03D077
:10135000B0F5802F0ED106E0C449096841F4803110
:10136000C24A116007E0C149096841F4A021BF4A9F
:10137000116000E000BF00BF704710B501460022B9
:10138000002300204A11012A02D1B84C236806E04C
:10139000022A02D1B54C236A01E0B44C636A01F021
:1013A0001F02012494401C4201D0012000E00020D3
:1013B00010BD38B5002000900024002500BF31206A
:1013C000FFF7DBFF05460098401C00900098B0F541
:1013D000A06F01D0002DF2D03120FFF7CEFF08B171
:1013E000012400E00024204638BD014600209F4A29
:1013F000106820F0F80040EAC100106070479E4974
:101400000860704702460020984B586820F47C1012
:1014100042EA01031843954B5860704796490866A5
:10142000704701460020914A506820F003000843AD
:10143000506070478D48406800F00C0070470146CE
:1014400000208A4A506820F0F0000843506070473E
:1014500001460020854A506820F4E060084350604F
:10146000704701460020814A506820F4605040EAED
:10147000C1005060704729B17C4A527A02437B4BCD
:101480005A7204E0794A527A8243784B5A72704712
:101490007A490860704701460020744A506820F479
:1014A00040400843506070470021754A11706F4AF0
:1014B00082F82010012802D0042808D103E001217D
:1014C0006F4A117004E005216D4A117000E000BF01
:1014D00000BF70476B49086070476449096A01435F
:1014E000624A11627047674944390860704730B5F5
:1014F00000210022002400235C4D6D6805F00C01E2
:1015000021B1042905D0082923D105E05E4D0560ED
:1015100022E05D4D05601FE0544D6D6805F47012CA
:10152000524D6D6805F48034022505EB92421CB9DA
:10153000564D554305600BE04C4D6D6815F4003F6A
:1015400003D0524D5543056002E04F4D55430560B1
:1015500002E04D4D056000BF00BF444D6D6805F0D1
:10156000F00109094A4D6B5C0568DD4045603F4D5F
:101570006D6805F4E061090A454D6B5C4568DD4026
:1015800085603A4D6D6805F46051C90A404D6B5C49
:101590004568DD40C560354D6D6805F44041890BF7
:1015A0003C4D6B5CC568B5FBF3F5056130BD29B1F9
:1015B0002E4A526902432D4B5A6104E02B4A52696C
:1015C00082432A4B5A61704729B1284A92690243E3
:1015D000264B9A6104E0254A92698243234B9A6123
:1015E000704729B1214AD2690243204BDA6104E0F5
:1015F0001E4AD26982431D4BDA61704729B11B4AEA
:10160000D2680243194BDA6004E0184AD268824378
:10161000164BDA60704729B1144A12690243134B22
:101620001A6104E0114A12698243104B1A61704733
:1016300014494039086070470F49C86470470B4926
:10164000C87170470948406A40F080700749486295
:10165000704701460020054A92680A4201D00120E5
:1016600000E0002070470149887270470010024076
:101670000000FFF8FFFFF6FE00004242D8004242A1
:10168000201002408004424200127A0000093D000E
:101690002C0000203C00002010B50446FB4884428A
:1016A00009D101218803FFF7A9FF00214FF48040F1
:1016B000FFF7A4FF32E0F648844209D10121480433
:1016C000FFF7A9FF00214FF40030FFF7A4FF25E04A
:1016D000F048844209D101218804FFF79CFF0021D2
:1016E0004FF48020FFF797FF18E0EB48844209D1C0
:1016F0000121C804FFF78FFF00214FF40020FFF7FE
:101700008AFF0BE0E548844208D101210805FFF774
:1017100082FF00214FF48010FFF77DFF10BD2DE9FF
:10172000F04786B005460E460024A24600BFA146FB
:101730000027B08900B100BF2F462C8A4CF6FF70FD
:101740000440F08804432C82AC894EF6F310044028
:10175000B08831890843718908430443AC81AC8A5D
:101760004FF6FF400440B0890443AC8201A8FFF764
:10177000BEFEC648874202D1DDF810A001E0DDF8C8
:101780000CA0A88910F4004F08D00AEBCA0000EBA7
:101790000A1031684900B0FBF1F807E00AEBCA0013
:1017A00000EB0A1031688900B0FBF1F86420B8FB47
:1017B000F0F004012009642101FB1089A88910F4CC
:1017C000004F08D0322000EBC900B0FBF1F000F070
:1017D0000700044308E0322000EB09106421B0FB4D
:1017E000F1F000F00F0004432C8106B0BDE8F08753
:1017F0004FF41651016000218180C18001810C21CC
:10180000418100218181704710B502460020108A75
:101810004FF2FF0318400B884C8823438C882343E6
:10182000CC8823431843108210BD002101804180E1
:101830008180C180704721B1828942F40052828147
:1018400004E082894DF6FF731A4082817047F0B53B
:1018500003460024002600250020A1F510676A3FFA
:1018600000D100BF1846C1F3421401F01F06012742
:1018700007FA06F5012C01D10C3004E0022C01D14D
:10188000103000E014301AB107682F43076002E0FF
:101890000768AF430760F0BD1AB1838A0B438382A8
:1018A00002E0838A8B4383827047028A4FF6F0738B
:1018B0001A400282028A0A430282704782894FF2EA
:1018C000FF731A40828182890A438281704721B165
:1018D000828942F00202828104E082894FF6FD7320
:1018E0001A4082817047028A4FF6DF731A400282E3
:1018F000028A0A430282704721B1028A42F480427E
:10190000028204E0028A4BF6FF731A40028270479B
:10191000C1F308028280704701468888C0F308003E
:101920007047818941F0010181817047028BD2B2F9
:101930000283028B42EA012202837047028B02F487
:101940007F420283028B0A430283704721B1828A5D
:1019500042F02002828204E0828A4FF6DF731A404E
:101960008282704721B1828A42F01002828204E0B2
:10197000828A4FF6EF731A408282704721B1828AC1
:1019800042F00802828204E0828A4FF6F7731A401E
:101990008282704721B1828942F40042828103E051
:1019A0008289C2F30E028281704721B1828A42F499
:1019B0000062828204E0828A4FF2FF731A408282C0
:1019C0007047828A4FF6FB731A408282828A0A43EA
:1019D0008282704721B1828A42F00202828204E050
:1019E000828A4FF6FD731A408282704702460020B9
:1019F000B1F5007F00D100BF13880B4201D0012058
:101A000000E00020704701F40072B2F5007F00D1C1
:101A100000BFCA430280704770B50246002400230D
:101A200000250020A1F510666A3E00D100BFC1F379
:101A3000421501F01F03012606FA03F3012D02D11E
:101A40009689334006E0022D02D1168A334001E028
:101A5000968A33400C12012606FA04F416883440A4
:101A600013B10CB1012000E0002070BD10B50022C0
:101A70000023A1F510646A3C00D100BF0A120124C2
:101A80009440A3B2DC43048010BD00000038014044
:101A90000044004000480040004C0040005000401E
:101AA000704700000FB4044910B503AA029800F073
:101AB0002BF810BC5DF814FB280000204FF000024A
:101AC0000429C0F0128010F0030C00F03180CCF13A
:101AD000040CBCF1020F18BF00F8012BA8BF20F8BE
:101AE000022BA1EB0C0100F023B85FEAC17C24BFFC
:101AF00000F8012B00F8012B48BF00F8012B7047BC
:101B00007047704770477047074B70B50D467B4470
:101B100000F039F80446284600F048F810B14FF0BC
:101B2000FF3070BD204670BD31F2FFFF4FF0000264
:101B300000B5134694469646203922BFA0E80C50C3
:101B4000A0E80C50B1F12001BFF4F7AF090728BF9E
:101B5000A0E80C5048BF0CC05DF804EB890028BF1A
:101B600040F8042B08BF704748BF20F8022B11F043
:101B7000804F18BF00F8012B7047000001694A1C14
:101B800002610878704700B58FB0CDE901310021BE
:101B9000059105497944CDE903101146684600F0E6
:101BA0002EF80FB000BD0000E5FFFFFF007B00F046
:101BB00080007047754600F03BF8AE460500694668
:101BC000534620F00700854618B020B5FFF766F9A8
:101BD000BDE820404FF000064FF000074FF000082E
:101BE0004FF0000B21F00701AC46ACE8C009ACE8AF
:101BF000C009ACE8C009ACE8C0098D4670472DE9C2
:101C0000F04106460024D6E90170F568804602E0FE
:101C10004146B847641C3046A8470028F8D1204602
:101C2000BDE8F0810446AFF300802046FEF7A5FA38
:101C300000487047A0000020581C00080000002049
:101C40004000000028010008981C00084000002007
:101C5000C00600004401000801020304050600005C
:101C60000000000000A24A04000000000000000084
:101C7000010203040607080900000000000000003C
:101C80000000000000000000010203040102030440
:081C900006070809020406081A
:04000005080000ED02
:00000001FF
